:020000041000EA
:10000000002008205D0100101301001015010010F0
:100010001101001011010010110100101101001058
:100020001101001011010010110100101701001042
:100030001101001011010010190100101B01001026
:100040001D0100101D0100101D0100101D010010F8
:100050001D0100101D0100101D0100101D010010E8
:100060001D0100101D0100101D0100101D010010D8
:100070001D0100101D0100101D0100101D010010C8
:100080001D0100101D0100101D0100101D010010B8
:100090001D0100101D0100101D0100101D010010A8
:1000A0001D0100101D0100101D0100101D01001098
:1000B0001D0100101D0100101D0100101D01001088
:1000C0001D0100101D0100101D0100101D01001078
:1000D0001D0100101D0100101D0100101D01001068
:1000E0001D0100101D0100101D0100101D01001058
:1000F0001D0100101D0100101D0100101D01001048
:100100001D0100101D0100101D0100101D01001037
:1001100000BE00BE00BE00BE00BE00BEEFF3058004
:10012000103800BEF2EB88719C810010BC81001079
:10013000A801001090A31AE7D3DEFFFF42012110AF
:10014000FF010000F4910000793512AB4FF0000080
:100150002049086006C881F3088810474FF05040D6
:10016000006810B14FF00000F2E70FA40ECC002998
:1001700002D000F015F8F9E71749184A002000E00E
:1001800001C19142FCD1002080F30A8814498847BC
:10019000144988471449884700BEFDE701C901C2D8
:1001A0009A42FBD3704700BFBC81001010010020B1
:1001B000801200202C93001000000820000008206E
:1001C0002C930010001008200010082000000000F0
:1001D0007047000008ED00E080120020A4220220F9
:1001E000751B0010350300106D1B0010F8B500BF23
:1001F00010B5054C237833B9044B13B1044800E023
:1002000000BF0123237010BD48140020000000002F
:10021000DC7D001008B5034B1BB10349034800E027
:1002200000BF08BD000000004C140020DC7D001061
:10023000002310B50F2882B0019301D002B010BD89
:100240004B07FBD505F03EFD0B4C03462268821A96
:10025000C72A0AD8019B002BF0D04FF0E0234FF0C3
:100260008052C3F8042D02B010BD044A01A91068E1
:10027000236004F087FFEDE720220220E421022022
:100280000E260D2508B50B4C4FF0FF31206805F008
:100290003DF80128F8D140EC406040EC40504FF46C
:1002A0007A7006F05BFE002343EC406043EC405064
:1002B000EAE700BFE421022080B582B001F04EFDE4
:1002C0000E2000F08FF90D2000F08CF901240E2390
:1002D00044EC44300D2344EC44300F2000F082F90C
:1002E00000250F2045EC44002A46214600F00CF979
:1002F00022460C4B0F20042100F020F929460A2049
:1003000004F0B4FE0646084F2B464FF480720749AE
:10031000CDE9004506483E6006F03CFB06F0B8FC1F
:10032000FEE700BF31020010E4210220DC7D001056
:100330008102001008B5FFF7BFFF00BF4FF050402B
:100340002DE9F84F6B4907686B4A0826002F14BF48
:1003500088469046694BDFF8A8A1DFF8A89153F8CA
:1003600027B0A6F10805EA0802F10C0358F823406B
:10037000E4B1BBF1000F1ED014F00F0110D05AF8F9
:10038000273005F00702EB40E8089200DB0701FA8E
:1003900002F200F18C0C03D4284649F82C20D847EF
:1003A000240905F1010501D0B542E5D30836282E10
:1003B000D7D1BDE8F88F14F00F0104D05AF82730D8
:1003C000EB40D80770D52309A6F10701EED013F052
:1003D0000F030CD05AF82720CA40D20707D401F0E7
:1003E0000700CA0881008B408C3249F82230230A6A
:1003F000A6F10601DAD013F00F030CD05AF827202B
:10040000CA40D50707D401F00700CA0881008B4015
:100410008C3249F82230230BA6F10501C6D013F027
:100420000F0333D1230CA6F10401BFD013F00F0347
:1004300043D1230DA6F10301B8D013F00F034AD125
:10044000230EA6F10201B1D013F00F030CD05AF81D
:100450002720CA40D00707D401F00700CA0881004E
:100460008B408C3249F82230240F06F1FF329DD0A8
:100470005AF82730D340D90798D402F00701D3089F
:100480008A0094408C3349F823408FE75AF827209C
:10049000CA40D007C6D401F00700CA0881008B40CB
:1004A0008C3249F82230BDE705F007039B0001FAC2
:1004B00003F38C3249F8223085E75AF82720CA40E6
:1004C000D207B6D401F00700CA0881008B408C32F5
:1004D00049F82230ADE75AF82720CA40D507AFD4F3
:1004E00001F00700CA0881008B408C3249F82230A5
:1004F000A6E700BF90820240488202401C1A0020FA
:100500006421002000800240002915BF0C21042135
:100510004FF0080C4FF0000C002A08BF6146064B54
:1005200053F8202003EB80034A4003F5805302F088
:100530000C021A60704700BF048003402DE9F043AD
:100540004FF05049DFF89880D9F80070164658F8F7
:10055000272004460D4683B042B393B348F82730B2
:100560004FF050431F681A4A1A4B1B49002F08BF0F
:100570001346E20804F00704A40005FA04F402F1AB
:100580008C0041F8204003EB82034EB1012115207D
:1005900003F500531C6003B0BDE8F04300F04EB912
:1005A00003F540531C6003B0BDE8F083002BDAD0A4
:1005B00015200A4948F8273000F0B4F9D9F800703E
:1005C000D1E715200549019300F0A0FA019BC5E78A
:1005D0004882024090820240008002403D030010A9
:1005E0001C1A002030B4002343EC440043EC4000CC
:1005F00005254FF480740B4BC20053F8201003EB19
:10060000800081F0400102F1804303F5203301F0C6
:10061000C00200F5805100F540500A605D60046042
:1006200030BC7047048003400FB400B583B0049C15
:10063000074801F0D3FB3CB105A92046019101F028
:100640007BFA044801F0CAFB012001F08DFA00BFDB
:10065000E87D0010F87D0010EFF3108072B6064BB5
:10066000D3E8CF1F01220029FAD1C3E8412F002986
:10067000F6D1BFF35F8F7047131600200023034AA3
:10068000C2E88F3F80F31088704700BF1316002028
:1006900070B5EFF3108572B6134CD4E8CFCF0126B6
:1006A000BCF1000FF9D1C4E84C6FBCF1000FF4D1DC
:1006B000BFF35F8F4FF0010C4FEAD10E01F007033B
:1006C0000CFA03F310F80EC01CEA030608D14CEA3A
:1006D000030300F80E30C4E88F6F85F3108870BDF7
:1006E0001046FFF7A1FF00BF13160020F8B5EFF387
:1006F000108572B6234CD4E8CF7F0126002FFAD1A3
:10070000C4E8476F002FF6D1BFF35F8F9A4227D816
:100710000126D70810F807E002F0070C06FA0CFCD7
:100720001EEA0C0F00EBD2070DD125E04FEAD20EE6
:1007300010F80EE002F0070C06FA0CFC1EEA0C0F93
:1007400000EBD20718D001329342EFD24FF0FF30C6
:100750000023C4E88F3F85F31088984207DBF8BD7B
:100760000023C4E88F3F85F310884FF0FF30002945
:10077000F5D00698FFF758FF4EEA0C0C104687F8A4
:1007800000C0E5E713160020044A1078431CDBB2D2
:10079000172B88BF10231370704700BFD0110020A3
:1007A0000146024A0248FFF773BF00BFFC7D0010FC
:1007B0002C1A002010B5054C82B001461F231822C8
:1007C00000940348FFF792FF02B010BD1C7E00109A
:1007D0002C1A00204FF0E022936843F000539360FE
:1007E000704700BF0021044B03F12002C3E88F1FB4
:1007F00001339342FAD17047081600204FF0E023EE
:100800004FF08032C3F80024C3F80424C3F808244E
:10081000C3F80C24C3F81024C3F81424C3F8182414
:10082000C3F81C24C3F82024C3F82424C3F82824C4
:10083000C3F82C24C3F83024704700BF012300F014
:100840001F029340400941B1800000F1604000F573
:100850006140C0F8803103607047024A203042F89E
:100860002030704700E100E00123064A410952F8B8
:10087000212000F01F0003FA00F0104214BF1846B8
:100880000020704700E100E001224309044900F024
:100890001F0002FA00F0403341F82300704700BF08
:1008A00000E100E0054A10309268054B52F8200044
:1008B000C01A2F288CBF00200120704700ED00E0F7
:1008C000D4110020F8B50D46EFF3108772B6124E22
:1008D000D6E8CF2F0123002AFAD1C6E8423F002AEA
:1008E000F6D1BFF35F8F0D4B00F110049B680C4AEB
:1008F00053F82430934203D0994201D001F018F804
:10090000064B9B6843F82450BFF35F8F0023C6E873
:100910008F3F87F31088F8BD1116002000ED00E02E
:100920001D0100102DE9F04F80468B46174683B01D
:10093000EFF3108372B6DFF8D0A10093DAE8CF1F8F
:1009400001230029FAD1CAE8413F0029F6D1BFF3BB
:100950005F8F664E96F90050002DC0F2A080644C67
:1009600005EB450304EB8300817908F11008317031
:1009700060499B008968994651F828E00646AEEB2D
:1009800004012F294FEA450231D95B4B9E4540F0C7
:10099000A2805A4B09F10209A144043BA3EB0903CD
:1009A000C3F34A036FEAC3434FF421416FEAD343D1
:1009B000154424F8251004EB85056B804BF6015394
:1009C000AB80FF2346F0010EEF71C5F808B0AB71A4
:1009D000484B9B6843F828E0BFF35F8F0023CAE8C9
:1009E0008F3F009B83F3108803B0BDE8F08F2EF09B
:1009F000010191F807C0BC452BD84FF42146E652BF
:100A00003E4B09F102062644043B09F104099B1BF5
:100A1000A1440E1FC771A6EB0906394FC6F34A065B
:100A20003E438680C3F34A03364E3B4343804AF637
:100A3000AA250B461B1B5B415D432D0DC0F808B07A
:100A4000857140F0010E0E60C2E7C079B8422BD923
:100A5000614691F9063003EB430004EB8000002B64
:100A60008446F2DA4BF6015001930B1D043EF61A50
:100A7000C6F34A066FEAC6466FEAD64602EB050C95
:100A8000DFF88090019B8D7104EB8C058E8044F81B
:100A90002C90A880AB71EF71C5F808B098E700F012
:100AA00047FF96F900505AE788880193400501F105
:100AB000040315D44FEA605C6FF007000CF1020CE0
:100AC000A0EB090003EB4C0C001B6044C0F34A0090
:100AD00040F46040CAE7019200F02AFF019A58E70B
:100AE00000F5FF1000F5FF501F30E3E79F220220C2
:100AF000D411002000ED00E01D01001004120020C0
:100B000000E0FFFF01488047111600202DE9F04F5B
:100B100083B0EFF3108972B6704ED6E8CF2F012361
:100B2000002AFAD1C6E8423F002AF6D1BFF35F8F10
:100B30006B4B00F110079B6853F82750694B9D429F
:100B400042D08D424ED0684C2B1B2F2B3CD84FF0FF
:100B5000010A4FEA50184FEA880808F1604808F582
:100B60006148D8F8003000F01F000AFA00FA0AEADB
:100B70000303C8F880A00093BFF35F8FEFF30583F2
:100B8000DBB29B4683BB25F0010EDEF808C0614551
:100B900000F099800B4661469C4603E081688C45D5
:100BA0002CD096469EF9063003EB430004EB800000
:100BB000002B0246F2DA63468B4259D0009BD3B138
:100BC000C8F880A1C8F800A0454B9B6843F827509F
:100BD000BFF35F8F0023C6E88F3F89F3108803B00F
:100BE000BDE8F08F1D46EFE79F42CCD0019100F0A9
:100BF0009FFE0199C7E7C8F880A0E5E790F90610C5
:100C0000002936DB01EB410C04EB8C0CDCF80830DE
:100C1000480093609CF80730D3719CF90630002B94
:100C200093713EDBBCF804305B0504D503F5FF137C
:100C300003F5FF531F335B1503F1020C4FF0040E55
:100C40000C2313FB01E303EB4C036FF0070C23446D
:100C5000ACEB020C6344C3F34A0343F46043938058
:100C6000224B08441A7804EB80041970A271A5E79E
:100C70007246BBF1000F17D1FF238EF806304BF6FA
:100C80000153AEF8043019484AF6AA2390F800C080
:100C90001146091B49414B431B0D82F806C00370E6
:100CA0008CE74BF60153DAE7114B12489B1A083BCD
:100CB000C3F30A316FEA01516FEA115140EA53035D
:100CC000D38091807AE79EF906107246002999DA5E
:100CD000BBF1000FE8D1034DD5E700BF111600208E
:100CE00000ED00E01D010010D41100209F22022021
:100CF0000E12002000F8FFFF4FF0FF0C20F003035E
:100D000003F1604303F5644300F003001A68C00078
:100D10000CFA00FC22EA0C0281400A431A60704778
:100D2000F0B5EFF30585EDB2EFF3108C72B62649FE
:100D3000D1E8CF2F0123002AFAD1C1E8423F002A8F
:100D4000F6D1BFF35F8F214E40F0010EB4684AF632
:100D5000AA2354F825701E4A0446A41A644163432A
:100D60001B0D77455BB21BD092F906409C421CD00C
:100D700092F912409C4223D092F91E409C4221D00D
:100D800092F92A409C4208BF03240FD0114A002444
:100D9000157813708571C1E88F4F8CF31088F0BD02
:100DA000B2680D4C42F82540F0E7002404EB4404FF
:100DB00002EB8402FF2494714BF601549480E5E722
:100DC0000124F3E70224F1E71116002000ED00E012
:100DD000D41100209F2202201D01001010B5074CE5
:100DE00082B001460523002200940548FFF77EFCEF
:100DF0000028A8BFC0F1330002B010BD387E00103B
:100E0000A3220220014B19440160704708160020FC
:100E10002DE9F041154D164EB54224D22C462368DB
:100E20004FF0FF374FF000088BB1FFF7ADFC0146E4
:100E30002846FFF7E7FF676084F80880BFF35F8FFD
:100E40000C34B4420FD223682546002BEDD1FFF7B6
:100E50009BFC01462846FFF7D5FF6760BFF35F8F15
:100E60000834B442EFD3BDE8F08100BF7012002017
:100E70008012002010B50446FFF786FC014620468C
:100E8000FFF7C0FF4FF0FF336360BFF35F8F10BD0C
:100E900010B504460120FFF78DFC034B1844206079
:100EA000BFF35F8F10BD00BF08160020024B19442E
:100EB0000160BFF35F8F704708160020000000003C
:100EC0002DE9F04F2DED028B85B0EFF30583DBB2FA
:100ED000103B9A0818BF01224FF0010103F00300F4
:100EE000AD4B00EB82020CBFAC4FAD4F53F822600C
:100EF00001FA00F207F541539FEDA58BB046019032
:100F000000925A6035E0B8F804301B0440F192803A
:100F100098F80630002B40F0DF80B8F90820002A4E
:100F2000C0F22581D8F8143002EB420203EBC20272
:100F3000D2E90245B5F1FF3F08BFB4F1FF3F0DD044
:100F4000019B07EB8301BB6A0A69D21AE31A934239
:100F500003D33B6A009A134200D10C61384600F07B
:100F60005FFB201A65EB0105012875F1000380F293
:100F7000FE80B8F90840009B002CFB63C3DBD8F867
:100F800014A004EB440B38460AEBCB05D5E90296D6
:100F900000F046FB484561EB06010029B3DB002E5B
:100FA000C0F2C3802B697F4A934200F0FD806A88BB
:100FB000B8F9080092B242EA0040696998470246CF
:100FC0000B4652EA030100F0B080002B80F2D5807E
:100FD000B9EB020066EB0303C5E902033AF93B50A3
:100FE000002D90DBD8F814C005EB45010CEBC101D6
:100FF0008A68821ACA6863EB0202002A83DBA8F8B7
:10100000085007E09568451BD56863EB0505002D82
:1010100008DB1146B1F9006006EB4602002E0CEB2E
:10102000C202EFDA2AF83B600C80B8F804301B04E7
:101030003FF56EAFD8F81030EFF3108272B6D3E8F8
:10104000CF0F01210028FAD1C3E8401F0028F6D1B4
:10105000BFF35F8F4FF6FF70B8F804900023D8F805
:1010600010100FFA89F9A8F80400C1E88F3F82F345
:1010700010889945FFF64CAFBA46D8F8145008F1DD
:10108000080B09EB490E05EBCE03D3E90267B8F96B
:101090000830DC46002B05DA0FE035F934308446A1
:1010A000002B0ADB03EB430405EBC400D0E902127A
:1010B000711A67EB0202002AEFDAACF8009035F9FA
:1010C0003E9025F83E30B9F1000FDADA98F8063094
:1010D0005746002B3FF421AF002388F80630B8F9BB
:1010E000083008F1080C5E1C41D01A46D8F81440AC
:1010F00003E08446591C3FF412AF03EB430104EBB9
:10110000C10045881E462D0434F93130F1D5964290
:1011100080ED028BEED0ACF80030B8F8082024F84F
:1011200031203246A8F80860E4E73AF83B30A8F8E6
:101130000830D8F81030EFF3108272B6D3E8CF0F32
:1011400001210028FAD1C3E8401F0028F6D1BFF3DF
:101150005F8FB8F80230D8F810102AF83B3000231F
:10116000A8F80240C1E88F3F82F31088CBE640BF69
:1011700005B0BDEC028BBDE8F08F3846CDE9022307
:1011800000F04EFA029A039B801843EB010323E719
:10119000FFFFFFFFFFFFFFFFA81E002000000B4026
:1011A00000800B40C10E00106B6918461A6902934B
:1011B00090470028B9D0029BD3E9002301E700BF84
:1011C0000B4808B50368EFF3108172B6D3E8CFCFB0
:1011D0000122BCF1000FF9D1C3E84C2FBCF1000F84
:1011E000F4D1BFF35F8F03F057FB0020002108BD4F
:1011F000742100202DE9F84F364C25692DB1BDE84A
:10120000F84F0A213448FFF7FDBDDFF8E4800326DC
:101210000321404600F0F2F9C4F80C80FFF7B4FA5D
:101220004FF0504C2D4B26701844DCF800300F2145
:101230006370636961801D834FF00405A3F87850E3
:101240004FF00505A3F890504FF00605A3F8A850FD
:101250004FF007050E21206108274FF6FF724FF06F
:101260000A0EA3F8C0504FF001094FF00C0C4FF0DC
:10127000020B4FF0090A0D204FF00B05A3F868117F
:101280001749A280A3F808E1A160A3F848B0A3F829
:10129000F0A0A3F82051A3F838C1A3F85001A3F897
:1012A0003090A3F86060A3F8D8701A800D4B3046D8
:1012B000C8F820700C49DC60FFF704FB4946304653
:1012C000FFF7BCFA094B0A211F600348BDE8F84F3D
:1012D000FFF798BD1C120020742100200816002082
:1012E000FFFF1000A81E0020C10E001040200B4080
:1012F00000000B40004870471C1200202DE9F0410F
:101300009DF82050044617461E4635B900F090F966
:10131000874266EB0101002957DB2169EFF310805A
:1013200072B6D1E8CF2F0123002AFAD1C1E8423F9B
:10133000002AF6D1BFF35F8FB4F90220D4F814C0AD
:1013400002EB4201002A4FEAC10E0CEBC10102DBA5
:101350003CF80E3063804FF000082369C3E88F8F9C
:1013600080F31088424533DB4888069B0130C0F388
:101370000E00012838BF01200B61079B48804B619C
:10138000C1E9027640EA02402369EFF3108172B6A8
:10139000D3E8CF6F0125002EFAD1C3E8465F002EB7
:1013A000F6D1BFF35F8FA3882CF80E30A28023699B
:1013B000C3E88F8F81F310880122E368217803F559
:1013C00001538A405A60BDE8F0812846BDE8F081AB
:1013D0004FF0FF30F7E700BF0146F0B50069EFF3CB
:1013E000108772B6D0E8CF5F0124002DFAD1C0E893
:1013F000454F002DF6D1BFF35F8FB1F902E04C6984
:101400000EEB4E0C4FEACC06BEF1000FA8BFA05B5E
:101410004FF00005A8BF488004EBCC0C0869C0E879
:101420008F5F87F31088AE4535DBBCF80200CCE94E
:1014300002230130C0F30E00012838BF0120059BB4
:10144000ACF80200CCF81030069B40EA0E40CCF815
:1014500014300B69EFF3108272B6D3E8CFCF0127B7
:10146000BCF1000FF9D1C3E84C7FBCF1000FF4D1FF
:10147000BFF35F8F8B88A353A1F804E00B69C3E827
:101480008F5F82F310880122CB68097803F501533E
:101490008A405A60F0BD4FF0FF30F0BD4289B2EB98
:1014A000214F38DD42690B1403EB430310B502EB07
:1014B000C3030469EFF3108C72B6D4E8CFEF0122B6
:1014C000BEF1000FF9D1C4E84E2FBEF1000FF4D1E8
:1014D000BFF35F8F5A8889B292B28A4207D0002345
:1014E0000269C2E88F3F8CF31088184610BD42F4A1
:1014F00000425A800123002201698371C1E88F2FC5
:101500008CF31088C268017802F5015203FA01F1E8
:101510001846516010BD0020704700BF40787047EA
:101520002DE9F04307460E4683B0EFF30584E4B29D
:1015300074B12F4B586A884203D2002003B0BDE833
:10154000F0839B6ABB4248D3012003B0BDE8F0831F
:10155000284DD5F80C9095F80080484600F060F8CA
:1015600008F1040859F828301B1A381A66EB0101F3
:10157000984271F100030DDB20BF1D4B586A864273
:10158000DBD89B6ABB42DFD2301A18BF012003B000
:10159000BDE8F08300F04CF8874266EB01010029BA
:1015A00013DB154B2846CDE900343A463346FFF7A6
:1015B00013FF011E09DD0E4B5A6A964215D89B6A2D
:1015C000BB4210D30B48FFF769FF094B586A8642AC
:1015D000B3D89B6ABB42B7D2D6E7401A18BF0120E6
:1015E00003B0BDE8F0839642ECD120BFEAE700BF2C
:1015F00000000B401C120020C111001010B4054B5C
:10160000054C064AA04214BF1846581C5DF8044B0E
:10161000FFF73EB8301A002000800B40547E0010C7
:10162000416A0B46826A416A8B42FAD11046704782
:10163000034B596A0A46986A596A9142FAD170472F
:1016400000000B4000EB400C4FEA8C0C0CF1804C7E
:101650000CF5803C70B5DCF80440A0F1040EB4F544
:10166000803F38BF4FF480345FFA8EFE38BFCCF82D
:101670000440BEF1010F29D94FF40066244D0CF54A
:101680004054266055F82060BEB9DCF800400CF5E7
:10169000805684EA421202F0E002BEF1010F32608D
:1016A00028D94FF4006145F820304FF480330CF511
:1016B00000521160CCF8043070BD6C69B4FBF6F4D4
:1016C000013404EB4404033CFDD2DEE70129D3D10D
:1016D00003250CF540542560DCF80840E407FBD5F1
:1016E000DCF800400CF5805684EA421202F0E00279
:1016F000074D32600122DCF800404C4004F0030446
:10170000346002FA01F1DCF808200A42FBD0C8E795
:10171000341A0020014B53F820007047341A00207F
:1017200070B4039C0568240344EA03431B4C002D5A
:10173000B4FBF1F4B2FBF4F21FDB194D194CA842D3
:101740000CBF4FF400454FF48045174E256004F55B
:1017500080542560B46835EA0404FBD1212500F5E6
:10176000405404340160826025600268002AFCDA7B
:101770000822C360226070BC7047046804F03F0414
:101780008C42DAD18468C4F30B049442D5D1C46886
:1017900004F4EE249C42D0D1EDE700BF001BB7005B
:1017A00000800540002002400000024030B44FF0AD
:1017B00080441D4B1C60E0B11C4CA3F54053DC6120
:1017C0001B4C40F0010044401C62596298624FF08B
:1017D00080454FF0E061144B1648174C1D60846043
:1017E00019604AB930BC4FF00042A3F580531A602B
:1017F0007047124BD861EAE74FF47A7303FB02F2A9
:10180000B2F1807F09D20E4B1A604FF0804130BC9C
:101810000A480C4B4260196070476FF07F430849DB
:101820001A460B60F1E700BF00B00D40D3C007B00F
:101830002D3FF84F00A00140F3FFFF0100800D4055
:10184000981E002000A00D40012300EB4000800006
:1018500000F1804000F5841041600360704700BFD4
:1018600010B5002482B00B46E48A002141E800F163
:10187000CDE900034B0254BF1021042144F2522051
:10188000A047DDE9002386460A214FF48170F44623
:1018900002B0BDE8104060470023DB8A002242E826
:1018A00000F2520201D4102118470421184700BF4A
:1018B00008B50B46011E02DB22B143F03003184687
:1018C000FFF7CEFF43F02003F9E700BF034AD2F849
:1018D0002838002BFBD0BFF35F8F704700000E400D
:1018E0000021044B044ABFF35F8F43F8041B93426B
:1018F000F9D170470C080E402C080E4010B44FF47C
:101900008D704FF42A64064A064B07491460D06074
:1019100019605368002BFCDA5DF8044B704700BF78
:101920000080044000A0044000B0FA00704700BFEF
:1019300008B50148FEF778FE787E001038B5054CF2
:10194000054DAC4204D254F8043B9847AC42FAD35C
:1019500038BD00BF907D0010D07D001038B5054C1B
:10196000054DAC4204D254F8043B9847AC42FAD33C
:1019700038BD00BFBC7D0010D07D001010B40748FA
:10198000074C084B084A094904601A608B6832EA20
:101990000303FBD15DF8044B704700BF00200240F9
:1019A0007F3BEFEF00300240F6FFF3030000024000
:1019B000044BDB6CB3F5004F03D14FF48022024B94
:1019C000DA64704700001150002011504FF0E022FF
:1019D000044BD2F8881D0B43C2F8883D10EE30044A
:1019E000704700BF030330006FF06041044B054AAD
:1019F00019609368DB4333F06043FAD1704700BF4E
:101A0000003002400000024010B545F25320FFF7BD
:101A100043FFBDE8104003460420184710B545F2C7
:101A20005320FFF739FFBDE8104003460120184757
:101A3000FEF7D8BE10B5054B054C4FF4887218461A
:101A4000A16806F053F8A06010BD00BF00000020A0
:101A500000ED00E00023F0B52B4C83B0C4F88430D7
:101A6000FFF74CFF0122294BDA63636C012BFCD199
:101A70000321264A244B11639D6B012DFCD10523C4
:101A800002271E4600242946214A22480097FFF7D4
:101A900047FE29463346204A20480096FFF740FE7D
:101AA0003946224604201E4BFFF7CCFD294622462C
:101AB00030461C4BFFF7C6FD2246082021461A4B34
:101AC000FFF7C0FD224609202146174BFFF7BAFD5C
:101AD000224606202146134BFFF7B4FD114B224648
:101AE00007202146FFF7AEFD0420FFF713FE0F4D40
:101AF000A5FB0035AD0CE0B229460134FFF7A4FE8A
:101B0000062CF8D103B0F0BD0000014000300140C8
:101B1000002F685900000540008C86470080054072
:101B2000001BB70080D1F008006CDC0283DE1B4391
:101B300000B9704700F014B910B5094B84B01C68A7
:101B40004CB1034600914FF0FF3203A90548A0476E
:101B5000012004B010BD00F041F9204604B010BDD2
:101B6000941E0020311B001000BEFDE708B5FFF7F2
:101B7000FBFF00BF38B5064D064CFFF7DFFEAC4259
:101B800004D254F8043B9847AC42FAD338BD00BFA6
:101B9000DC7D0010D07D0010036808461146184710
:101BA000437D2DE9F04782460F469146002B44D0F5
:101BB000002A2ADD002401252046DFF88C804E1EF5
:101BC0002CB3337816F8012FA3F10D03B3FA83F386
:101BD0000A2A4FEA531320D02B46994504F10104F9
:101BE00005F10105ECDC814505DDA9EB0001DAF822
:101BF0000030384498474F4417F8013CA3F10D03D7
:101C0000B3FA83F35B098AF81430BDE8F08716F85D
:101C1000012F9AF814300A2ADED1002BDCD1A04221
:101C200004DA211ADAF80030384498474046022195
:101C3000DAF8003098472846CEE73846DAF8003020
:101C40001146BDE8F0471847187F00102DE9F0470E
:101C500082B00D46924699460746FFF7E9FC2F4AA7
:101C6000821841F10003002BBCBF4FF0FF326FF030
:101C700000432B4806F05CF86B1C804603D13846C5
:101C800005F0FCFF0546274B274E1C68274BB9F192
:101C9000000F08BF1E46B4B1BAF1000F1AD1DFF829
:101CA000909001E0246974B12368002BFAD0D9F830
:101CB00000300BB1A342F5D120462A463946B04741
:101CC0002469002CF0D1B8F1000F1FD1284602B0D2
:101CD000BDE8F0874FF00A0ADFF8549002E024696B
:101CE000002CF0D02368002BF9D0D9F800300BB1CC
:101CF000A342F4D120462A463946B0472046012265
:101D00000DF107018DF807A0B047E8E7044805F09A
:101D1000E7FF284602B0BDE8F08700BF40420F0051
:101D200078120020881A0020A11B0010991B0010B7
:101D3000901A0020084A136823B90AE003F1100240
:101D40001B6933B19842F9D129B903691360016164
:101D5000704701B110607047881A002000F05CBA2B
:101D6000F0B583B006468DF80700FFF761FC174A0F
:101D7000821841F10003002BBCBF6FF000434FF00D
:101D8000FF32134805F0D4FF124B07461C689CB184
:101D9000114D01E024697CB12368002BFAD02B6837
:101DA0000BB1A342F6D1204601220DF10701FFF746
:101DB000F7FE2469002CEFD117B9304603B0F0BD0F
:101DC000034805F08DFF304603B0F0BD40420F00E0
:101DD00078120020881A0020901A002038B5044696
:101DE00005F04CFF012305461A4620462946FFF719
:101DF0002DFF084B1C682CB163682BB198472469F0
:101E0000002CF9D1284638BD2469002CF4D128468D
:101E100038BD00BF881A0020704700BF0022014B68
:101E20001A707047A02202204B79FF2B0BD18879C2
:101E300048B9CB79012B07D1082A05D9034B8A78F9
:101E400009201A7070470020704700BFA0220220AE
:101E500001207047012908D110B5124B0C461B78A0
:101E60009188994203D0002010BD0120704753781B
:101E7000012B08D0022BF6D1002164220846FFF77F
:101E800095FC204610BD5188CB054BBF4A0A4A0A33
:101E900010464FF0FF3002F0010201F07F01FFF722
:101EA00007FD00BFA0220220004870473C7F0010C1
:101EB000012907D15378012B02D19388072B03D036
:101EC00000207047012070471146A623014A01F007
:101ED00057BA00BF607F00100346012201481A7004
:101EE000704700BF1C7F001008B50B68B3F5966FF4
:101EF00000D008BD00224FF0FF301146FFF7D8FC9C
:101F0000024A034B10601960704700BF241A00207A
:101F1000281A0020184B70B51A68002A28D0EFF351
:101F2000108172B6D2E8CF4F0120002CFAD1C2E85E
:101F3000440F002CF6D1BFF35F8F00220F4C1868BE
:101F400059602270C0E88F2F81F31088002400258B
:101F50000B4E3078FEF788FC20B90024002520467F
:101F6000294670BD3078FEF78FFC2046294670BDAB
:101F70004FF47A740025EBE7A01E0020A222022075
:101F8000A1220220014B1878FEF77EBCA12202207C
:101F900038B5044600200D4601F03AFB90B300200E
:101FA00001F04CFB70B3FFF743FB184A821841F174
:101FB0000003002BBCBF4FF0FF326FF0004314480A
:101FC00005F0B6FEF0B1002001F022FB58B9002167
:101FD0004FF0FF3000F01CFD6FF002040C4805F0DC
:101FE0007FFE204638BD002001F028FB0028EED0FF
:101FF00021462A46002001F02DFB041E08BF6FF089
:102000000204EBE76FF00204EBE700BF40420F0071
:102010007821002008B5FFF70BFB0F4A821841F129
:102020000003002BBCBF4FF0FF326FF000430B48A2
:1020300005F07EFE70B14FF0FF30002100F0E8FCAB
:10204000002001F04FFB0028F5D1BDE8084003480F
:1020500005F046BE08BD00BF40420F0078210020B9
:102060002DE9F84307460E46FFF7E2FA344A821894
:1020700041F10003002BBCBF4FF0FF326FF0004373
:10208000304805F055FE08B9BDE8F883002001F09E
:10209000BFFA002849D0002E42DD0025DFF8A880D5
:1020A000DFF8A89013E02246002001F05FFB00213A
:1020B00004464FF0FF3000F0ABFC002001F012FBB3
:1020C000FFF7B6FAC8E900012544AE4228DD00203A
:1020D00001F070FB741B8442A8BF04467919002CE0
:1020E000E1D121464FF0FF3000F092FC204601F094
:1020F000F9FA204601F08CFA90B1204601F05AFB23
:102100000028E2D1FFF794FAD8F80030D8F804207C
:1021100013EB090342F10002834272EB0103D4D2B4
:102120000848BDE8F84305F0DBBD00200021064B60
:10213000C3E90001BDE8F843024805F0D1BD00BF86
:1021400040420F00782100200014002020A1070049
:1021500030B5002185B02A4805F0D2FDF0B9294BF1
:102160001A68CAB1EFF3108172B6D2E8CF5F0124CA
:10217000002DFAD1C2E8454F002DF6D1BFF35F8F95
:10218000214C1D6822785960D3B201222270C5E823
:102190008F0F81F31088CBB105B030BD00214FF017
:1021A000FF3000F035FC002001F048FA04461448E6
:1021B00005F096FD002CEFD0144B1B68002BEBD0E4
:1021C000134A106805B0BDE830401847FFF792F891
:1021D0000446FFF72DFA10F57A7241F1000301254C
:1021E000002120460B4C002BBCBF4FF0FF326FF09C
:1021F0000043CDE901150094FFF780F805B030BD2C
:1022000078210020A01E0020A2220220241A0020F3
:10221000281A0020151F00104FF0504330B585B02C
:102220001C68FFF767F8FFF779F9A04202D0002099
:1022300005B030BD0021274B08461B7801F088FD12
:1022400025480368002B42D00120FEF7C7FD034656
:10225000224C2349C0B22370FEF734FB20780121C1
:10226000FEF7ECFA0E20FEF71DFB18BB1D4B0125F7
:10227000C3E90000FFF73EF80446FFF7D9F910F56F
:102280007A7241F1000300212046174C002BBCBF9D
:102290004FF0FF326FF00043CDE901150094FFF7D6
:1022A0002DF80028C3DB01211048FFF743FD012072
:1022B00005B030BD0120FEF77DFA01460948FEF762
:1022C000F5FD00220E200A49FEF72CFBEBE7FEF796
:1022D000D1FDB9E7B881001078210020A1220220A9
:1022E00051210010A01E0020151F001034120020E4
:1022F000851F001000487047A880001000487047F4
:102300005480001038B51A4B04461A782AB344B9E1
:1023100040F209424FF44173164D6A8015482B80F4
:1023200038BD052C21D8144B124D53F824102846E3
:102330000023013903E0132B20F8022F12D011F8EB
:10234000012F5FFA83FC0133002AF4D10CF1010361
:10235000DBB25B0043F44073E0E71121184600F064
:1023600025F8D4E74FF44A73D8E7002038BD00BF02
:10237000942102205C1A0020BC80001000B545F2B8
:1023800047308BB0FFF788FA01220346092101A8E4
:102390009847DDE90332044912BA1BBAC1E90023A8
:1023A0000BB05DF804FB00BF6C210020013900F088
:1023B000B3805D4A13784FEA231C9F2B8CBF0CF12E
:1023C000370C0CF1300C012980F800C000F0A78018
:1023D00003F00F03092BCCBF37333033022943708E
:1023E00000F09D8053784FEA231C9F2B8CBF0CF18B
:1023F000370C0CF1300C032980F802C000F08F80FC
:1024000003F00F03092BCCBF373330330429C370DB
:1024100000F0858093784FEA231C9F2B8CBF0CF132
:10242000370C0CF1300C052980F804C077D003F08C
:102430000F03092BCCBF37333033062943716ED0DD
:10244000D3784FEA231C9F2B8CBF0CF1370C0CF177
:10245000300C072980F806C061D003F00F03092B68
:10246000CCBF373330330829C37158D013794FEAC2
:10247000231C9F2B8CBF0CF1370C0CF1300C09295D
:1024800080F808C04BD003F00F03092BCCBF3733C3
:1024900030330A29437242D053794FEA231C9F2BD1
:1024A0008CBF0CF1370C0CF1300C0B2980F80AC0F2
:1024B00035D003F00F03092BCCBF373330330C2951
:1024C000C3722CD093794FEA231C9F2B8CBF0CF145
:1024D000370C0CF1300C0D2980F80CC01FD003F024
:1024E0000F03092BCCBF373330330E29437316D07B
:1024F000D3791A119F2B8CBF373230320F29827358
:102500000DD003F00F03092BD4BF3033373310291C
:10251000C37318BF103002D000230370704700232C
:1025200008440370704700BF6C210020F8B500F02C
:102530003BF90C2340271A4D1A4CAB67FF220E20A3
:102540001949FEF7EFF93A460021204605F044FB11
:10255000164B0126A36280210023154A6670A260F3
:10256000843A278327876184C2F88430C2F8803098
:10257000636084F8213084F83B3063620D4BE36084
:10258000E36205F0EDFB4FF000544FF480320A494E
:102590000A4B2E643046EC64C5F89010DA64F8BD3E
:1025A00000001150941A0020BD030020800010503C
:1025B000840010500001105010D001000020115074
:1025C00001210E20FEF73AB900220248114600F020
:1025D0000BB900BFB41A0020044B197021B14FF49D
:1025E0000032034BC3F89020704700BF9D220220A9
:1025F000002011500B785B0602D14B78052B00D0E0
:1026000070474B88014ADBB21360704700001150DD
:10261000CB782DE9F04103F0030EBEF1010FC3F3B7
:1026200001005FD0002791F802C0374D0CF07F0207
:102630005600898806EBDC1305EB43134FEADC14E4
:10264000C1F30A01D87684F0010083F802C019832F
:102650005870DF7094BB04232C4803EBC20305EBD6
:10266000821C03EB0008CCF808801F508AB3284B6B
:10267000D2001344CCF804303F31BEF1020F21F0F8
:102680003F013AD0234A3719136805EB471719441D
:102690001160214AFB60914231D8344405EB441566
:1026A000E97E83F0A04383F480136A6843EA816380
:1026B00043F0004301201360BDE8F081134813B2DA
:1026C00000EBC20805EB821CCCF8288040F8337080
:1026D0005AB90023114A05EB44140120E2606360FB
:1026E000BDE8F0810020BDE8F081D20002F1A042F7
:1026F00002F58012CCF82420BEE74900C2E7FFF7BC
:1027000017F9FB68C9E700BF941A00208000105039
:10271000040010509C1E0020FF0F105000011050AC
:1027200005F01EBB8C4608B5114607481A460CF04A
:102730007F034FEADC1C0CEB430C00EB4C1000F069
:1027400053F8012008BD00BF941A002011F07F004B
:102750000AD0C909074B01EB40004FF40062002189
:1027600003EB401005F004BB034BC909C1F10202A1
:102770009A66EFE7941A00200020115011F07F03B1
:1027800000D17047002210B4C809064C00EB43008A
:1027900004EB40136FF4006118465DF8044BDA70E7
:1027A00005F0E6BA941A00204FF0805209480A4911
:1027B00008B50A4B02600A609968C94311F080515C
:1027C000FAD14FF48052064805F006FA0922054B6B
:1027D0005A6708BD0020024000300240000002405D
:1027E0000000105000001150837E10B50446BBB9A4
:1027F0004FF0000C01232046A2822161A4F816C0EC
:10280000A37605F075FA20B14FF40032084BC3F8F7
:102810009020204605F0B4FA28B10123237710BD9B
:1028200005F096FAE4E72046BDE8104005F088BAC6
:10283000002011502DE9F04100241D4D8046234613
:102840002A781C4F1C4E0DE0336813EB441325D03F
:10285000DB68404698472A780134E4B2511CA14213
:10286000234606DBA242A3EB0203EDD807EB43139A
:10287000EEE7124C54220021204605F0ADF94FF04E
:10288000FF33251D6360C5E90133EB6004F11400DB
:102890002022BDE8F041FF2105F09EB94FF0E02372
:1028A000D3F8F03DDB0700D500BEBDE8F08100BFE6
:1028B0009C22022030810010641400203416002075
:1028C000704700BF704700BF00207047002070476E
:1028D000704700BF704700BF704700BF704700BF20
:1028E000024B5878003818BF01207047341600207A
:1028F000024B1878C0F38000704700BF34160020E8
:102900002DE9F047DFF8008198F80030FF2B4DD11A
:102910000D4600294ED0002154220746314805F0CB
:102920005BF90022304C314B20461A70FEF7A2FAB8
:102930002F4B1C602F4C04F11400FEF7A9FA20461F
:1029400001F0EEFD2C4B1C602C4B23B12C48FFF703
:10295000C3FA2C4B18600024294E23463278DFF846
:10296000ACA0DFF8A0900EE0D9F8003013EB4413D0
:1029700011D05B687BB1984732780134E4B2511CC6
:10298000A142234620DBA242EED89B1A0AEB431356
:102990005B68002BEFD14FF0E023D3F8F03DDA076E
:1029A00000D500BE00252846BDE8F0870125284651
:1029B000BDE8F0874FF0E023D3F8F03DDB07F1D519
:1029C00000BE2846BDE8F0872946384688F80070E2
:1029D000FFF7ACFD05460028ECD03846FFF7F0FDC8
:1029E000E5E700BF341600202C1600209E220220AE
:1029F000881600204C1200208C160020D91E0010D2
:102A00009C220220641400206812002030810010F3
:102A10002DE9F04FDFF8CC928BB099F80030FF2B06
:102A200000F0EF80AA4CDFF8C0A2DFF8C0B2256842
:102A30006B69EFF3108272B6D3E8CF0F0121002843
:102A4000FAD1C3E8401F0028F6D1BFF35F8FAA6117
:102A5000284607A901F0C0FB00236A69C2E88F3F3E
:102A6000AB6983F31088002800F0CB809DF81D30FF
:102A7000013B072B00F28E83DFE803F0A5B0919AAB
:102A800089360A04089B002BD1D009989847CEE7D5
:102A90009DF820108F4B01F07F0503EB450303EBFE
:102AA000D11393F834206FF3000283F8342093F8A5
:102AB00034206FF3820283F83420002D00F0A480CC
:102AC000854A1B7D1278934280F09180DBF80020CC
:102AD00012EB431300F08E809D699DF82120099B25
:102AE0009DF81C00A847A2E77C4A1378002B00F051
:102AF00081801378013BDBB21370137803F0FF0081
:102B0000002B94D1734D9DF81C802B7843F001036A
:102B10002B7095F8343060F3000385F8343095F865
:102B2000343060F3820385F8343095F8353060F343
:102B3000000385F8353095F8353060F3820385F869
:102B4000353000F08DFC9DF8203003F06002602AE3
:102B50000BD0402A64D003F01F03012B00F0C88083
:102B6000022B00F08980002B66D04FF0E023D3F8D1
:102B7000F03DDD0700D500BE9DF81C000021FFF7E9
:102B8000E5FD80219DF81C00FFF7E0FD4FE7514B6C
:102B90001B78D9077FF54BAFFFF7A0FE47E74D4BFA
:102BA000DB78DA077FF543AF0898FFF78BFE3EE747
:102BB000484B1A78D0077FF53AAF1878C0F3C000B9
:102BC000FFF78AFE33E79DF81C00FFF733FE00F0A5
:102BD0003DFC404B9DF820209A7028E79DF81C0092
:102BE000FFF728FE00F032FCFFF774FE1FE7501CD1
:102BF000984211DA4FF0E023D3F8F03DDC0700D51E
:102C000000BE0BB0BDE8F08F099B9DF821209DF818
:102C10001C0000F039FC0AE79B1A0AEB43135BE740
:102C20002F4800F01DFC4046012108AAFFF740F99B
:102C300000287FF4FCAE9FE7202A00F08D81002A57
:102C400093D19DF82130092B8FD801A252F823F09F
:102C5000F72E0010DB2E00106B2B0010192F001028
:102C60006B2B0010C12E00106F2E00106B2B00106C
:102C7000592E00107F2D00109DF8241011F0700FB8
:102C80007FF473AF144B01F07F06187805EB460311
:102C900003EBD1131F7DCB0987424FEA4606019310
:102CA0005BD3431CBB42C0F274813F1A0AEB471747
:102CB000002A00F07281786900F0D2FB40460121C1
:102CC0007B6908AA984700287FF4B1AE54E700BF9B
:102CD0008C160020341600209C2202209E22022006
:102CE000B11E001068120020308100106414002012
:102CF0009DF824300F2B3FF63FAFB54A2B441B798C
:102D00001578AB4234D36A1C9A42FFF635AF5B1B91
:102D10000AEB4315686900F0A3FB012140466B698B
:102D200008AA984700287FF482AE9DF8203013F05F
:102D300060057FF421AF9DF821300A3B012B3FF65F
:102D40001BAF00F08DFB9DF821300A2B00F0F781BE
:102D5000404608A900F0FAFA69E6DBF8003003EB18
:102D60004717002A00F01981002F3FF405AFA2E7B2
:102D7000DBF8005015EB43153FF4FEAECAE76B7865
:102D80009DF822609E4200F054816B78002B40F049
:102D9000C4816E70002E00F04A81701EC0B2FFF731
:102DA000ADFA002800F065814378022B40F0618184
:102DB0002B78C27923F03001C2F340131B01C2F318
:102DC000801243EA42130B432B70438800F109063B
:102DD000C3180293CDF80C80029BB34240F2AA8143
:102DE00072780B2A00F0B5810123042A40F041815A
:102DF00018464FF00008029A7549921B334609782D
:102E0000064692B2CDF804801EE0DBF8007017EBA6
:102E1000481700F02E811946049303983B690592E8
:102E20009847DDE90432082808F1010102D98242FD
:102E300080F004815FFA81F86549CDF80480097853
:102E4000481C804500F3158101988845A0EB0101DD
:102E5000DBD30AEB4117DEE76B7840468DF81A307A
:102E60000DF11A02012308A900F08AFADFE5BDF886
:102E70002200030A5A1EC0B20E2A3FF67DAE01A1FF
:102E800051F822F0A3300010352F0010DF30001071
:102E9000792B0010792B0010C1300010352F001055
:102EA000792B0010792B0010792B0010792B001052
:102EB000792B0010792B0010792B00109530001021
:102EC00008A800F0D3FA40469DF82210FFF77CFBDB
:102ED0002B7843F002032B70A9E5BDF82230012BBB
:102EE0007FF44AAE2B7840466FF3C30308A92B70DA
:102EF00000F02CFA9BE540462B789A0802F002027B
:102F0000C3F340131343ADF81A300DF11A02022334
:102F100008A900F035FA8AE5BDF82230012B7FF4CC
:102F20002BAE2B78404643F0080308A92B7000F025
:102F30000DFA7CE5022B00F01181FFF7C7FC024679
:102F400000283FF419AE4046538808A900F018FA4B
:102F500000287FF46CAD0FE69DF824300F2B3FF670
:102F60000BAE1B4A2B441B791578AB4227D2DBF8FA
:102F7000005015EB43153FF4FFAD686900F070FA9F
:102F8000404601216B6908AA984700287FF44FAD9D
:102F9000F2E5002A7FF4F0AD00279DF8212002F031
:102FA000FD03012B16D0002A7FF4DFAD019B3544D1
:102FB0002B4493F834304046C3F34003A3E76A1C24
:102FC0009A42FFF6D9AD5B1B0AEB4315D5E700BF6C
:102FD0009C220220BDF82230ABB9012A00F0878084
:102FE00099F80000FFF7B2FB019AAB19134493F86C
:102FF000342042F0020283F8342093F8342042F067
:10300000010283F83420002F3FF411AD786900F0FD
:1030100027FA7B69012108AA40469847002000F062
:103020001FFA95F83530DE073FF501AD90E6FFF762
:1030300051FC404608A900F089F9F8E43246012A1B
:103040001E46134600F0A080002A00F08E80002269
:10305000B77805E081F80480D1B28B4240F28580D8
:10306000B91855FA81F191F804C00132BCF1FF0F93
:10307000F0D04FF0E023D3F8F03DDB0700D500BEE1
:103080004FF0E023D3F8F03DDF0700D500BE00236A
:103090006B7071E5FEF708FF024600287FF453AF1E
:1030A0006AE5FFF727F9024600283FF45EAD404687
:1030B000122308A900F064F900287FF4B8AC5BE59E
:1030C000FFF702FC024600283FF456AD4046137855
:1030D00008A900F055F900287FF4A9AC4CE5BDF82B
:1030E0002410FFF70FF902460028EFD144E599F8C4
:1030F00000000293FFF742FB019BAA191A4492F8C1
:103100003410029B63F3410182F8341092F83410BA
:1031100063F3000182F8341075E700214046FFF7A1
:103120005BFA4046FFF7FCFAAF784046FFF782FBB8
:10313000AF702EE6DDF80C80FFF7CAFB79E740465A
:10314000012308A90DF11A028DF81A5000F018F9A0
:103150006DE43278F3781644727846E6FFF7CEF8DD
:10316000024600287FF4EFAEFFE4024643463146B4
:1031700006440D4800F0A0FE0C4B019A1B78013369
:103180009342BFF629AE74E73A6909498A4208BFFB
:1031900002235CE74FF0E023D3F8F03DDB077FF537
:1031A00046AC00BE43E400BF481600209C2202202B
:1031B000A93800102DE9F84F0A9F002A40D00C468C
:1031C0001E4615464FF0000ADFF87C90DFF87C8041
:1031D00018E0204698F8021099F800B000F038FE88
:1031E000E0B121465846FFF713FAF0B1A2780AF190
:1031F000010AD30916BF0B9B3A701A702278AA45B0
:1032000014441DD06278052A0FD1E17801F0030142
:10321000B1420AD1A27812F0700FDAD04FF0E02359
:10322000D3F8F03DDA0700D500BE4FF0E023D3F825
:10323000F03DDB0702D40020BDE8F88F00BEFAE7BE
:103240000120BDE8F88F00BF68120020341600206E
:1032500038B58B7813F0700F08D04FF0E023D3F817
:10326000F03DDB0700D500BE002038BD074A084B03
:103270000C46084691781D7800F0EAFD0028ECD055
:1032800021462846BDE83840FFF7C2B93416002071
:10329000681200200B46064A06481168DA093432E3
:1032A00003F07F0302EB4303184400F08BBD00BF23
:1032B00088160020341600200B46064A064811687E
:1032C000DA09343203F07F0302EB4303184400F0C1
:1032D000A3BD00BF881600203416002010B5194C7D
:1032E00001F07F0C04EB4C0404EBD11090F834C0D7
:1032F0001CF0010F08D04FF0E023D3F8F03DDA07BF
:1033000000D500BE002010BD90F834C000F130049C
:103310000D484CF0010C007884F804C0FFF702FA65
:103320000028F0D14FF0E022237960F300032371ED
:10333000237960F382032371D2F8F03DDB07E1D5F6
:1033400000BE10BD341600206812002030B50B4CB2
:103350008C46A64600230546086849681A46AEE82A
:1033600003009CF9001028469942C4E90233BDE8E5
:103370003040ACBF80211946FFF7B0BFF4150020E4
:103380002DE9F0412F4F4FF00008BE468C4606460F
:1033900008684968BA60AEE80300A7F80E80BCF878
:1033A000065082B0AB4228BF2B46BB819DB14BB3C8
:1033B00014467AB397F90020402B28BF4023002AF7
:1033C00032DB4146204A3046FFF788FF80B10120BA
:1033D00002B0BDE8F0819CF900202B46002AACBF6A
:1033E000802100212A463046FFF778FF0028EED1E1
:1033F0004FF0E023D3F8F03DDB0711D500BE02B05B
:10340000BDE8F08197F900101A460029ACBF1946B3
:103410008021D8E74FF0E023D3F8F03DDA070DD450
:10342000002002B0BDE8F0811A462146064801930B
:1034300004F05CFB8021044A019BC4E700BE2046E7
:10344000C6E700BFF4150020B41500200022034B8E
:10345000C3E90022C3E902221A617047F415002073
:10346000014B1861704700BFF415002030B40246CC
:10347000044C0025234600685168C4E9025530BC5D
:1034800003C37047F415002070B5414CC909227878
:103490000546B1EBD21F1E4682B021D04BB14FF092
:1034A000E023D3F8F03DDA0700D500BE002002B0DB
:1034B00070BD2146FFF79EF8236973B122460321B0
:1034C00028469847012002B070BD01462846FFF704
:1034D0003DF980212846FFF739F9012002B070BD7F
:1034E00094F90020002A06DBA0680028DED01A46E6
:1034F000284904F0FBFAE089A168E288304480B2F0
:1035000031448242E081A16016D03F2E14D9A289B5
:1035100094F90040131A9BB2402B28BF4023002C83
:1035200027DB90424FF000012FD01A4A2846FFF7C0
:10353000D5FE0028D1D114E023692BB10221284601
:10354000134A98470028C0D0002394F90020284649
:103550009A42ACBF802119461A46FFF7BFFE0028E9
:10356000BBD14FF0E023D3F8F03DDB079ED500BE82
:103570009DE7904208D01A460648019304F0B6FA37
:103580008021044A019BD1E780210022CEE700BFC1
:10359000F4150020B41500202DE9F0410446FFF792
:1035A0009FF908B9BDE8F081FFF7A2F907460028A6
:1035B000F8D1C825144B05FB0436F278002AF1D067
:1035C00005FB043303F11005284600F0F3FD3F2806
:1035D000E8D93846F178FFF75DFE0028E2D02846AA
:1035E00000F0E8FD3F2809D9084A3846F17802EB97
:1035F000C4124023BDE8F041FFF770BE3846F178B1
:10360000BDE8F041FFF758BEEC140020681400201C
:1036100010B50446FFF764F908B9002010BDFFF7A4
:1036200067F90028F9D1C823034803FB0400007997
:1036300000F0010010BD00BFEC140020C82208B546
:10364000034B02FB0030103000F09AFD08BD00BFB4
:10365000EC1400202DE9F8434FF6FE744FF6FF738B
:103660004FF0C808A24298BF13461C4E044608FB00
:103670000065103528469AB200F0F8FD0746FFF7BE
:103680002FF910B93846BDE8F883FFF731F98146C4
:103690000028F7D108FB0466F378002BF2D0284607
:1036A00000F088FD3F28EDD94846F178FFF7F2FD9C
:1036B0000028E7D0284600F07DFD3F2808D9084AB9
:1036C00048464023F17802EBC412FFF707FED9E722
:1036D0004846F178FFF7F0FDD4E700BFEC14002076
:1036E000681400202DE9F0410546FFF7F9F810B9FC
:1036F0000020BDE8F081FFF7FBF807460028F7D16E
:103700004FF0C808174E08FB05642434204600F02B
:1037100037FD0028ECD008FB05663846B178FFF786
:10372000B9FD0028E4D040220F4902EBC5150D4435
:103730002046294600F09AFD044670B103462A4609
:103740003846B178FFF7CAFD50B94FF0E023D3F8FF
:10375000F03DDB07CCD500BECBE7B178FFF7ACFD81
:103760002046C6E7EC1400206814002038B54FF658
:10377000FE754FF6FF734FF0C80CAA4298BF134670
:103780000B4C9AB20CFB004424340546204600F052
:1037900019FE034620461C4600F0F2FC3F2801D8E3
:1037A000204638BD2846FFF79DFF204638BD00BFA4
:1037B000EC140020C82208B5034B02FB0030243073
:1037C00000F0F8FC08BD00BFEC140020F0B50025A7
:1037D000184C83B02946C822204604F0FDF9FF2387
:1037E0004FF4E1310822144863710570A160A2739F
:1037F00004F1380101234022009504F1100000F08B
:103800008DFC0123402204F17801009304F1B807F4
:1038100004F1240000F082FC04F1C0063846FDF7F4
:1038200029FB3046FDF726FBC4E90757C4E90C65C0
:1038300003B0F0BDEC140020E8140020064B1A6A17
:10384000196B12B10022C3E9072211B10022C3E9AA
:103850000C220120704700BFEC140020002210B59C
:103860000E4C0F48237802600271DA0707D59B07D8
:103870000BD5BDE8104001210A4800F06DBE1030A4
:1038800000F04EFE23789B07F3D4064800F048FE74
:10389000BDE810400121034800F05EBEE81400209E
:1038A000EC14002010150020F0B54B7983B0022BEA
:1038B00002D18B79022B03D00025284603B0F0BD3E
:1038C000264FBB783BB14FF0E023D3F8F03DDB0748
:1038D000F2D500BEF0E78B7806463B700C780925E0
:1038E0000C44617824290BD1082A02D80FE0AA429F
:1038F0000DD323781C4461782B4424299DB2F6D043
:1039000005290AD0042902D163790A2B13D000209B
:10391000FFF742FE284603B0F0BD21463046FFF7D0
:1039200097FC0028CFD0A3787B7023781C442B44CD
:1039300061789DB2E6E70A4B277801930133009343
:10394000022330461A46E119FFF734FC0028BAD0AA
:1039500005F10E0317FA83F39DB2D8E7EC140020AB
:10396000EE140020137803F06003202B08D170B50B
:10397000284C938894F800C09C4503D0002070BD6B
:10398000002070475378203B032BF7D8DFE803F083
:1039900028240D02012930D003291FD11E4BEBB181
:1039A0000020518800E000BF18E0012925D003293C
:1039B00014D15588194805F0010686F001012571DA
:1039C00000F0CAFD164B4BB131460020C5F3400252
:1039D00000E000BF012070BD012913D0012070BD9F
:1039E00001290FD00329F9D10E4B002BF6D000206E
:1039F0000D49FEF779FA012070BD1146FFF7A6FCCC
:103A0000012070BD11460723074AFFF7B9FC0120CA
:103A100070BD00BFEC140020000000001015002055
:103A200000000000E91E0010F41400202DE9F0470A
:103A3000374D0C46EA7807468A421E4655D1DFF8D4
:103A4000E8809AB2414605F1100000F0BBFC314B12
:103A5000C3B16B79FF2B15D0A6B105F1100908EBA6
:103A6000060A02E0D0450DD06B7918F8012B9A4276
:103A7000F8D1484600F094FB0028F3D1697900E0C2
:103A800000BFEFE7244B23B1244800F089FB002856
:103A90003AD00020FFF780FDAB78A34203D0012489
:103AA0002046BDE8F0871E4B13B1002000E000BFA8
:103AB0000020FFF717FE0028F1D11A4800F060FB44
:103AC0000028ECD1002EEAD016F03F06E7D13846A8
:103AD000A978FFF7DFFB04460028E0D033463246E2
:103AE0003846A978FFF7FAFBDAE7AB788B42DAD0F1
:103AF0004FF0E023D3F8F04D14F00104D0D000BE15
:103B000000242046BDE8F08700E000BFC1E700BF09
:103B1000EC1400200000000000000000FC14002055
:103B2000000000001015002068140020F0B5144CAF
:103B300085B04FF413720021204604F04DF8402761
:103B400000234FF480760F4D04F5A67219460295B6
:103B5000009204F594701A460397019600F0D8F984
:103B6000002304F128023D44009219460122CDE9C8
:103B700002570196201D00F0CBF905B0F0BD00BF43
:103B8000D01700205017002010B5054C04F5947094
:103B900000F0EAF9201D00F0E7F9012010BD00BF98
:103BA000D017002038B50025064C04F59870257014
:103BB00000F0B6FC04F10C0000F0B2FC84F82951CE
:103BC000657138BDD01700202DE9F84F4B79FF2BD8
:103BD00050D1394D0C7895F829316E790C441E433B
:103BE0000F4604EB020B45D18B782B700B79002B21
:103BF0003CD0804605F5987905F10C0A6378052BD1
:103C000009D0A34502D831E05C452FD223781C446B
:103C10006378052BF8D1A34528D921464046FFF704
:103C200017FB00283FD0A378DB0926D1484600F0D7
:103C300077FCA37895F8282185F82931A388404698
:103C4000C3F30A03A3F50073B3FA83F35B0963F3C9
:103C500041021A4985F8282100F0F6F918B33A799B
:103C600001362178F3B29A420C44C7D8E01B80B2E7
:103C7000BDE8F88F0020BDE8F88F504600F050FCFA
:103C8000A3782A796B71A3880D49C3F30A03A3F5BE
:103C90000073B3FA83F35B0963F3410200202A71D6
:103CA00000F098F9DBE74FF0E023D3F8F03DDB07B5
:103CB000E0D500BEDFE700BFD0170020F8180020D5
:103CC000D417002070B51C4C064694F829C11D4637
:103CD0008C4517D1B4F8343163B9184B23B10020A7
:103CE0001749AAB200E000BF3046164900F0ACF90F
:103CF000012070BDD4F82C11AAB204F5987000F020
:103D000061FBEAE763798B4201D0002070BD0E4B66
:103D10001BB10020A9B200E000BF30460B4900F003
:103D200059F908B1012070BD2A463046074900F014
:103D30001DF9012070BD00BFD01700200000000059
:103D400050170020F818002000000000D4170020B1
:103D500010B582B0A9B1012808D80B7833B1184C3E
:103D6000012B235420D0012002B010BD4FF0E023DE
:103D7000D3F8F03DDA0702D4002002B010BD00BE37
:103D8000FAE70124084601A9ADF80440FEF7B8FDA2
:103D900038B94FF0E023D3F8F03DD907EDD500BE98
:103DA000EBE7074B1C70E8E7FEF7AAFD0028DAD125
:103DB0004FF0E023D3F8F03DDB07DDD5EFE700BFA0
:103DC00028160020F8B5037813F001041AD10378FF
:103DD00005465A07C3F3800701D52046F8BD0E46B5
:103DE0004FF0FF31304603F093FF2B7813F00104BE
:103DF0000BD12B785B0709D42B78012443F0040303
:103E00002B7003E000242046F8BD3C46304603F00A
:103E100067FF2046F8BD00BF70B50D4604464FF061
:103E2000FF31284603F074FF2378C3F380065B0755
:103E300008D5237813F0010211BF0026237862F31E
:103E400082032370284603F04BFF304670BD00BF4D
:103E5000C378828803F003000228C2F30A0205D067
:103E600003281BD0012807D00020704702291ED04C
:103E7000402A09D801207047022940F2FF3308BFC9
:103E80004FF480639342F6D24FF0E023D3F8F00D65
:103E900010F00100EFD000BE0020704702290CBFD7
:103EA0004FF4806340239342EED30120E3E7B2F561
:103EB000007FDFD0E8E700BF0A44914226D291F8A4
:103EC00001C0BCF1050F05D091F800C061448A42E1
:103ED000F5D8704700B591F802C00CF07F0E00EBEA
:103EE0004E0E4FEADC1C0EF80C3091F800C0614415
:103EF0008A4209D991F801C0BCF1050FEBD091F8C5
:103F000000C061448A42F5D85DF804FB704700BFE9
:103F10002DE9F0418E4682B0009390F800C0089ED3
:103F2000BDF824706EF3000C04461546012331469B
:103F30003A4600F808CBBDF82C8000F0EFF806B147
:103F40003FB901200A9BA4F80280636002B0BDE87B
:103F5000F08104F11C063046FCF78CFF0DB13546AC
:103F60000026C4E90556ECE701207047F8B507467E
:103F7000084640F2FF13154610F8082B0C4612F0C5
:103F8000020F14BF1E463F2600F0FAF828B925B1EB
:103F9000354202D12378DA0701D50020F8BD384632
:103FA0006178FFF777F90028F7D0237813F0010341
:103FB00007D04FF0E023D3F8F03DDB07EDD500BE8E
:103FC000EBE71A4638466178FFF788F90028F0D009
:103FD000F8BD00BF70B501F10805064628460C463D
:103FE00000F0CEF810B12378D90701D5002070BDBC
:103FF00030466178FFF74EF90028F7D028466288EE
:10400000616800F033F92378054648B1DA0710D526
:104010004FF0E023D3F8F03DDB07E7D500BEE5E73E
:1040200013F00105E2D130466178FFF745F92846E3
:1040300070BD0346626830466178FFF74FF900288B
:10404000E6D02846F4E700BF8B892DE9F0410C4605
:1040500005462BB90B78DE073DD50020BDE8F08181
:104060000E4616F8083B2C4A03F00203002B30469C
:1040700015BF90466FF03F084FF40077402700F0DF
:1040800099F88742E9D82378D907E6D42846617899
:10409000FFF700F90028E0D0304600F08BF88742A7
:1040A00023782BD8DA070ED4668808EA000290B28B
:1040B000864228BF064661785EB36268334628466A
:1040C000FFF70CF908BB4FF0E023D3F8F03DDB0716
:1040D000C3D500BEC1E74978FFF7DCF80028BCD0A3
:1040E0002378D807EFD46388617883B16268284663
:1040F000FFF7F4F80028E6D06088AFE713F0010678
:10410000ABD128466178FFF7D7F83046A6E71A46C4
:10411000EDE73246D2E700BF00FEFFFF2DE9F04198
:10412000B2F5004F9DF8188027D80446C06817469E
:104130000E461D4618B14FF0FF3103F0E9FD20692E
:1041400018B14FF0FF3103F0E3FD0022C5F30E0379
:10415000E06843EAC83362812660A780E380228159
:1041600008B103F0BDFD206920B103F0B9FD0120C5
:10417000BDE8F0810120BDE8F0810020BDE8F081BC
:10418000038942899BB292B28088934236BFC2EBC8
:1041900040029B1A9B189BB2984228BF1846704752
:1041A0000289438990B29BB2C01AB0FA80F04009EC
:1041B000704700BF038942899BB2808892B29342C4
:1041C00036BFC2EB40029B1A9B189BB2984286BF37
:1041D000C01A80B20020704738B5044600690D4609
:1041E00018B14FF0FF3103F093FD2189638989B243
:1041F0009BB2A288994236BFC3EB4200C81A40184E
:1042000080B250B3824209D291422CBF891A8918D8
:104210008BB29A42638103D89B1A9BB29A42FBD914
:10422000E2882168C2F30E0202FB0311284603F064
:104230005DFC6189012589B24B1C9BB29942A28821
:104240000ED9002302FA05F15B1A9BB22069638143
:1042500008B103F045FD284638BD054663899BB289
:10426000B3EB420F4FEA4201F0DBEDE72DE9F047F7
:10427000064600698846914618B14FF0FF3103F0B9
:1042800047FD338974899BB2A4B2B588A34236BF77
:10429000C4EB45071F1BFF18BFB2002F48D0BD421B
:1042A0003ED34F4528BF4F46A542BFB203D8641B3B
:1042B000A4B2A542FBD9F2882B1B31689BB2C2F392
:1042C0000E0C9F42E2460CFB041123D913FB0CF3A6
:1042D0001FFA83F94A46404603F008FC7A1B224441
:1042E00012FB0AF2316808EB090092B203F0FEFB00
:1042F0007289B58892B2D3199BB29A421AD96A00D0
:104300009B1A9BB23069738108B103F0E9FC38460F
:10431000BDE8F08740460CFB07F203F0E7FBE7E758
:10432000AB422CBF5B1B5B199CB22F467481B8E774
:1043300073899BB2B3EB450F4FEA4502E2DBDFE73F
:10434000F8B50446C0680E4618B14FF0FF3103F0CF
:10435000DFFC2589238961899BB289B2A2888B42BF
:1043600036BFC1EB42015B1A5B189BB29A42ADB2F9
:1043700008D8E779FF0905D1E06808B103F0B0FC7F
:104380003846F8BD95422B4603D39B1A9BB2934205
:10439000FBD2E2882068C2F30E0202FB0300314622
:1043A00003F0A4FB6B1CA2889BB29D424FEA420122
:1043B00004D95B1A9BB201272381DDE7B3EB420FDF
:1043C000F9DBF6E72DE9F04F144683B0002A5CD004
:1043D0000546C0688B4618B14FF0FF3103F098FCDA
:1043E000EA792F896B89D209BFB29BB23BD1AE88E3
:1043F0009F4236BFC3EB4603FB1ADB199BB29E42BA
:1044000048D9A6EB03081FFA88F8A04528BFA046A4
:10441000B5F806A008EB07091FFA89F9BE423C4629
:1044200003D8A41BA4B2B442FBD2331B28689BB2AE
:10443000CAF30E024345924602FB040055D3594687
:1044400002FB08F203F052FBAA88B9454FEA420387
:1044500002D3B9EB420F03DBA9EB03091FFA89F979
:10446000A5F8089018E0B5F8048044451DD3B5F8C8
:1044700006A0A4EB0804CAF30E0202FB04BBB8F1C9
:10448000000F09D01F464646C4E79046404603B099
:10449000BDE8F08F4FF00008E8680028F6D003F080
:1044A0001FFC404603B0BDE8F08F9F4236BFC3EB10
:1044B0004802FA1AD21992B24FEA480122448A42BB
:1044C0000ADB03EB08091FFA89F9A9EB0407BFB25D
:1044D000BB421ED97F1ABFB204EB07094646B5F8A6
:1044E00006A0A0461FFA89F998E713FB02F3594684
:1044F0009AB2019203F0FAFA019A28680BEB0201D2
:10450000A8EB0602224412FB0AF292B203F0EEFA82
:104510009AE7B942DEDD4646B5F806A0A0467DE73B
:1045200010B50446C06818B14FF0FF3103F0F0FB3E
:10453000206918B14FF0FF3103F0EAFB0023E06877
:104540006381238108B103F0CBFB206908B103F03C
:10455000C7FB012010BD00BF38B50446C0680D463A
:1045600018B14FF0FF3103F0D3FB206918B14FF0C1
:10457000FF3103F0CDFBE379E06865F3C713E37126
:1045800008B103F0ADFB206908B103F0A9FB0120DD
:1045900038BD00BF0A4B93F90020002A0FDB4FF013
:1045A00050410123D1F888019340184207D04FF0C1
:1045B000E0224FF08050C1F88C31C2F8040D7047F2
:1045C00069120020002300B583B0019300F05CFA6B
:1045D000019B002BFCD003B05DF804FB10B502F08A
:1045E00093FD044601F07CFB28B14FF0E0234FF02F
:1045F0008052C3F8042D2046BDE8104002F01ABED8
:1046000010B504224FF0E024002322610520A361AD
:10461000FDF780F80722044BA3FB00308309013B20
:104620006361226110BD00BFD34D62104FF0E023E3
:104630004FF07F42002130B585B00391C3F81C2DA7
:10464000D3F81C3D1B0E8DF807309DF807309DF800
:1046500007301A060CD5039B013303939DF80730EE
:104660005B00DBB28DF807309DF807301B06F2D4F3
:10467000039B082B40D0039BC3F107031B0203F4E9
:10468000E0634FF050412548254A036012780B68DB
:104690009A4233D04FF0E02300244FF05045D3F836
:1046A000202D204942F47F02C3F8202D0E20C3F8AC
:1046B0001C4D03F03BF81C490B2003F037F82A6827
:1046C0001A4BFF2143F822401A20FCF715FB1A2051
:1046D0001749FCF7F7F801211A20FCF7AFF800F0B2
:1046E000CBF9286801F038FC029400F0CDF9029B68
:1046F000002BFCD005B030BD0023C2E7FFF780FFE0
:104700004FF0E022D2F8203D0A4943F07F43C2F83F
:10471000203D0F2003F00AF8BCE700BF90210220E3
:104720006A120020B14A0010494B00108821022073
:1047300095450010DD45001008B500F0A5F9BDE86D
:104740000840FFF773BF00BF4FF0E0234FF08052E7
:10475000C3F8042DBFF34F8FBFF36F8F704700BFB7
:10476000836913F8023C662B00D070474FF0E023BA
:10477000D3F8882D42F47002C3F8882DD3F8342F73
:1047800042F04042C3F8342F00F05AB92DE9F04707
:104790004FF080744FF010374FF0093540F8044C5B
:1047A0004FF0073440E90B57164D40F8344C40E9C0
:1047B00003524FF0113C4FF006344FF0053240E900
:1047C00009C340E90F2403464FF0123A4FF0033972
:1047D0004FF002384FF0013E4FF008364FF00435ED
:1047E0006FF0020240E9059A40E907E840F8306CB2
:1047F00040F8405C40F8442C43F8481D1846BDE89A
:10480000F08700BFC545001070B50E20FBF7C8FF4C
:104810000F20FBF7C5FF0121032003F01DF802461E
:1048200001234FF05041002452B2084E9340084DEE
:1048300032700848C1F88C31C1F884312C7002F014
:10484000E9FFFFF7F3FE204670BD00BF69120020AC
:104850006A12002039470010EFF305830F2B84BF45
:10486000014A9B5C704700BFF0E300E0094B1B78F6
:10487000FF2B0BD0EFF30583DBB22BB14FF050428F
:10488000106800EB4300704701F014BE4FF0504336
:10489000186870476A12002010B5204B8E461B78AE
:1048A00082B0FF2B30D04FF0010C1D4902681D4B28
:1048B000521AA3FB02131B0903EB4303A2EBC3032E
:1048C0000CFA03F140BF00240368C3E88F4F8EF356
:1048D0001088EFF30583DBB233B9134B186802B0CD
:1048E000BDE8104000F0D6B90F4B01AA186801943A
:1048F00000F004FA019B2BB14FF0E0234FF08052FF
:10490000C3F8042D02B010BD40BF00230268C2E806
:104910008F3F81F3108802B010BD00BF6A120020E3
:1049200008160020ABAAAAAA10220220F0B5354C26
:10493000064694F800C00F46BCF1FF0F14461D4612
:1049400083B04ED0FCF774FE40F2E733B4EB000CBA
:1049500065EB010E1CEB03004EF10001B0F57A7F10
:1049600071F100031CDA00233268C2E88F3F87F33D
:104970001088254B5A6A95420CD94FF0E0234FF02E
:104980008052C3F8042DBFF34F8FBFF36F8F002009
:1049900003B0F0BD9B6AA34230D3012003B0F0BD49
:1049A0004FF47A72002303F0BBF90028DBD0002318
:1049B0003268C2E88F3F87F3108801220090306888
:1049C0001249401A1249A1FB0061090901EB41019A
:1049D000A0EBC1010F4802FA01F1006800F000F9F4
:1049E000C7E700230268C2E88F3F81F310882046A2
:1049F000294603B0BDE8F040FCF792BD9542BCD01B
:104A00000120CBE76A12002000000B4008160020AE
:104A1000ABAAAAAA1022022008B500F0D3F8014BD5
:104A2000186008BD1022022001234FF050420349B4
:104A300091F900108B40C2F8803170476912002054
:104A40000BA10CC9126853F82210086806C881F33C
:104A50000B88022181F31488203080F30988BFF38A
:104A60006F8F4FF0000080F311881047AFF3008084
:104A7000000000D0C81E002062B661B6BFF34F8FA1
:104A8000BFF36F8F66DF00BFEFF311804FF01001AF
:104A900081F31188BFF34F8FBFF36F8F704700BF53
:104AA00080F31188BFF34F8FBFF36F8F704700BF44
:104AB000EFF309811EF0100F08BF21ED108AEFF30C
:104AC0000B82734621E9FC0F55FC084457FC09642E
:104AD00059FC0A8401E9F00319A00CC8106853F8C6
:104AE000203019604FF0100181F31188BFF34F8F10
:104AF000BFF36F8F01F030FA4FF0000080F31188A0
:104B00000FA10CC9126853F8221008681838B0E8D1
:104B1000F00345EC004447EC016449EC0284B0E842
:104B2000FC0F13F0100F08BFB0EC108A82F30B8853
:104B300080F30988184700BFAFF30080AFF300800F
:104B4000000000D0C81E00201EF0040F0CBFEFF3C1
:104B50000880EFF309800149084700006147001011
:104B60002DE9F04106460D4601F09EF833683469A0
:104B700006F10C072B43A74233601ED04FF000080C
:104B80000AE02B4206D0D30148BF48EA050802F0EC
:104B900019FA3368A7420ED020460268646812F002
:104BA000806F43F0007122F07F45EAD035EA030CB4
:104BB000E9D0A742F0D123EA08033360BDE8F04111
:104BC00002F0C4B910B51C2002F0C2FE044620B1A8
:104BD000002340F8043B00F09FF8204610BD00BFC2
:104BE0002DE9F04106461F460D46904601F05CF85F
:104BF000346867B92C420DD0B8F1000F0CD024EA0C
:104C00000505356002F0A2F92046BDE8F08135EADD
:104C10000403F1D0069B23B902F098F92046BDE8C1
:104C2000F081B8F1000F1A460BBF4FF080614FF0D2
:104C3000A06100234FF08073002F08BF1946301D7C
:104C4000294301F01FFB02F081F948B102F024FB77
:104C5000830104460BD524F07F442046BDE8F08153
:104C600001F07EFD02F018FB83010446F3D401F04D
:104C700089FD346857B9254205D0B8F1000F02D03C
:104C800024EA0505356002F089FAE4E735EA040311
:104C9000F9D1F2E72DE9F04106460D4601F004F89E
:104CA0003368346906F10C072B43A74233601ED0EA
:104CB0004FF000080AE01D4206D0D30148BF48EA81
:104CC000050802F07FF93368A7420ED0204602683B
:104CD000646812F0806F43F0007122F07F45EAD0E3
:104CE00035EA030CE9D0A742F0D123EA0803336088
:104CF00002F02CF93068BDE8F08100BF8C4600B5A9
:104D0000864613467146624602485DF804EB02F09F
:104D1000F5BC00BF614B00104FF0FF31002200F1E5
:104D20000803C0E90131C0E903330260704700BFE6
:104D300000230361704700BFD0E9002310B49C68D2
:104D400001328C609C684B60616099605DF8044B37
:104D500008610260704700BF30B40D686B1C10D052
:104D600000F108031C465B681A68AA42FAD9026877
:104D70004B60013299608C606160086130BC0260F8
:104D8000704704696368F2E70346026910B4546827
:104D9000406899689C428160486008BF516000216A
:104DA00010685DF8044B013819611060704700BF4E
:104DB00070B51546026C0446866B2AB905684DB37A
:104DC00000200136A66370BD7DB9406802F08EFEFA
:104DD0006368226C1344A26863609342F0D3236833
:104DE000013628466360A66370BDC06802F07EFE8F
:104DF000226CE36851429B1A2268E360934202D21C
:104E0000A3680B44E360022DDAD1012E38BF0126DE
:104E10000020D7E7806801F0DDFB0136A560D1E70F
:104E20002DE9F047064684B001F0ACFC96F8453019
:104E30005DB2002D1CDD06F1240708E0A26BE36BD8
:104E400003969A423DD36B1EDAB25DB282B1B46C66
:104E5000002CF3D1736A5BB1384601F0B1FA002837
:104E6000F1D001F01DFB6B1EDAB25DB2002AEED16B
:104E7000FF2386F8453002F091F901F083FC96F8A3
:104E800044305CB2002C14DD06F1100503E0631E13
:104E9000DAB25CB26AB133695BB1284601F090FACC
:104EA0000028F4D001F0FCFA631EDAB25CB2002AEA
:104EB000F1D1FF2386F8443004B0BDE8F04702F09A
:104EC0006DB994F84580226CD4F838904FFA88F880
:104ED00092B92368002B3BD04FF0000A09F101037F
:104EE000B8F1FF3FA3631CD1636A43BBBAF1000F63
:104EF000A9D001F0D5FAB6E7606803A902F0F6FD83
:104F00006368226C1344A26863609342E4D323680D
:104F1000B8F1FF3F636009F101034FF0000AA3639A
:104F2000E2D000F0D7FE4045E0D908F101084FFA81
:104F300088F884F84580BAF1000FDAD183E704F1EC
:104F4000240001F03DFA0028D0D001F0A9FA8AE748
:104F5000A068019301F03EFB019B8246A360BDE780
:104F6000F0B5846C83B0A26BE36B01909A4203D3DB
:104F70000025284603B0F0BD94F84560226CA76B6D
:104F800076B2E2B1606801A902F0B0FD6268236CFC
:104F90001A44A36862609A4213D3002523686360B1
:104FA0000137731CA76312D1636A002BE1D004F1AF
:104FB000240001F005FA002818BF0125D9E725686B
:104FC00075B10137731C4FF00005A763ECD000F0FA
:104FD00081FE8642CDD2013676B284F84560C8E7BC
:104FE000A06801F0F7FAA5600546D9E7F8B5C0B3A7
:104FF0001746A0FB012305460E4693BB01FB00F0BC
:1050000010F1550F2DD8543002F0A2FC044640B3E5
:1050100056B300F15403C4E90F56236001F0B2FB0C
:10502000D4E90F3101FB03F32268591A1344002518
:10503000A360FF2362600A44E260A56304F11000EC
:1050400084F8443084F84530FFF766FE04F124000C
:10505000FFF762FE02F0A2F884F850702046A564C3
:10506000F8BD00242046F8BD0346D4E7F8B5054650
:1050700078B388420E462CD3542002F069FC0446D3
:1050800040B30027C0E90F57FF25006001F07AFB0D
:10509000216CE36B226801FB03F3591A626013442D
:1050A0000A44C4E90232A76304F1100084F84450B2
:1050B00084F84550FFF730FE04F12400FFF72CFE82
:1050C00002F06CF8022384F850302046A764A663EF
:1050D000F8BD00242046F8BD2DE9F843044690466B
:1050E0001D460F46FFF7B8FB02F00EF8A26BE36B0C
:1050F00006469A4208D3022D06D00025304602F01B
:1051000099F82846BDE8F883394694F845702A4650
:1051100020467FB2D4F83890FFF74AFE7B1C12D1AC
:10512000A36CFBB1022D02D1B9F1000F1CD12046B6
:10513000FFF716FFC0B1B8F1000F15D001231D46CF
:10514000C8F80030DAE700F0C5FD87420CD201252F
:1051500001377FB2304684F8457002F06BF828467C
:10516000BDE8F883636A33B90125304602F062F87E
:105170002846BDE8F88304F1240001F021F9002855
:10518000D9D1F1E7F8B504460E46FFF765FB01F00B
:10519000BBFFA36BE26B05469A4211D994F84520F8
:1051A0000133FF2AA36357B210D1A36CE3B12046A9
:1051B000FFF7D6FED0B1CEB101231F46336000E029
:1051C0000027284602F036F83846F8BD00F082FD88
:1051D00087420BD201377BB20127284684F845303D
:1051E00002F028F83846F8BD636A2BB90127284633
:1051F00002F020F83846F8BD04F1240001F0E0F890
:105200000028D8D1F2E700BF2DE9F041044684B070
:105210000F46019201F0B6FAA56B002D55D1019B06
:10522000ABB302A801F030F92E4604F1240801F0D6
:10523000B5FF00F039FD01F0A5FA94F84430FF2BDA
:1052400008BF84F8446094F84530FF2B08BF84F809
:10525000456001F0A3FF01A902A801F001FFE0B938
:1052600001F090FAA36B2BBB01F098FF4046019927
:1052700000F0EEFF2046FFF7D3FD01F067FE08B314
:1052800001F080FAA56B05BB019B002BCFD101F08B
:1052900085FF002004B0BDE8F0812046FFF7C0FD87
:1052A00001F054FE01F06EFAA36B002BEFD001F079
:1052B00075FFE5E701F072FF2046FFF7B1FD01F051
:1052C00045FEDDE701F04CFADAE7226C5AB1E168FD
:1052D000A36811449942E16028BF2168384628BF7D
:1052E000E16002F003FC2369013DA5632BB901F0E5
:1052F00055FF012004B0BDE8F08104F1100001F079
:105300005FF80028F3D001F02BFAF0E72DE9F04127
:105310000446002784B0019101F034FAA36B3E46A5
:10532000B846002B3AD1019D002D00F08380002E5D
:105330004FD001F033FF00F0B7FC01F023FA94F8EE
:105340004430FF2B08BF84F8448094F84530FF2B8D
:1053500008BF84F8458001F021FF01A902A801F0EF
:105360007FFE50BB01F00EFAA36B002B35D101F08C
:1053700015FF2368002B54D0019904F1240000F09C
:1053800067FF2046FFF74CFD01F0E0FD002845D007
:1053900001F0F8F9A36B0126002BC4D02268013B71
:1053A000A363002A56D02369002B4AD1012701F0BC
:1053B000F5FE384604B0BDE8F0812046FFF730FD29
:1053C00001F0C4FD01F0DEF9A36B73B101F0E6FE5C
:1053D000DEE702A801F058F8ABE701F0DFFE204657
:1053E000FFF71EFD01F0B2FDD2E701F0D7FE1FB9B5
:1053F000384604B0BDE8F08101F0C4F9616A19B122
:10540000236B1968C1F120010027A06801F044F95D
:1054100001F0C4FE384604B0BDE8F08101F0A0F907
:10542000B6E701F0AFF9A06801F054F8074601F0C3
:10543000B5FEA1E72F4601F0B1FE384604B0BDE845
:10544000F08104F1100000F0BBFF0028AED001F0A5
:1054500087F9ABE701F042FFA060A4E700297ED006
:1054600030B400242346444D05EBC30252684FEA92
:10547000C30C824270D034B10133082BF4D1C4E99B
:10548000001030BC704755F83320002A5FD0072B3E
:1054900003F10102F5D005EBC20464684FEAC20CC7
:1054A000A04259D055F83240002C59D0062B03F1B8
:1054B0000202E6D005EBC20464684FEAC20CA042C7
:1054C0004AD055F83240002C4AD0052B03F1030294
:1054D000D7D005EBC20464684FEAC20C84423BD0CB
:1054E00055F83240002C3BD0042B03F10402C8D005
:1054F00005EBC20464684FEAC20CA0422CD055F8F8
:1055000032406CB3032B03F10502BAD005EBC204A1
:1055100064684FEAC20CA0421ED055F83240FCB17C
:10552000022B03F1060CACD005EBCC025268904282
:1055300010D055F83C20BAB1012BA2D0EB6B9842A9
:1055400016D0AB6B002B9CD107234FF0380C05EB2A
:105550000C0491E74FEACC0C05EB0C048FE7704785
:10556000134605EB0C0487E763464FEACC0CEEE7E5
:105570004FF0380CF0E700BF0814002070B5044667
:105580000E46154601F0FEF894F84430FF2B04BF98
:10559000002384F8443094F84530FF2B04BF0023E7
:1055A00084F8453001F0FAFDA36B23B12046BDE835
:1055B0007040FFF735BC04F124002A46314600F064
:1055C000B1FE2046BDE87040FFF72ABC064C08B586
:1055D000FFF7BAF82368022B00D8FEE7FFF7B4F80C
:1055E0002368022BFAD8F8E7E41E002038B5836B55
:1055F000002B02DB836B012B31DD2D4C016B22680C
:105600002368126BDB6B4D1EDB07236848BF02F17A
:10561000FF329B6B002B03DB23689B6B012B1FDD91
:105620004FF0FF3362686168126BC96BC90761682C
:1056300048BF02F1FF32896B002903DB6168896B87
:1056400001291CDD01330AD000254FF050431B68AF
:105650009D4228D054F825309B6B02331AD138BDB7
:10566000144B1B68002BDBD19542D9DB416801F05C
:105670000101002914BF15464FF0FF33D2E70D4951
:1056800049680029DED1AA42DCDC42689207D9D5FC
:105690000125DAE72846FFF7C7F96FF0010254F851
:1056A00025309A6338BD0122024B43F8252038BDCE
:1056B000C81E0020942202204FF050411B4B0A6864
:1056C00053F8220000282CD053F82200013843F868
:1056D00022000A6853F822301BBB10B51449154B41
:1056E00053F822400B78013BDBB20B702BB9124808
:1056F00000F81230114AC2E88F3F4FF050424B7809
:105700001068013BDBB24B7033B90B4A0C4902EB1A
:1057100040025370C1E88F3F0020FFF7C1F90CB978
:1057200010BD7047BDE81040FFF70EB88821022079
:1057300084210220942202208021022016160020BB
:10574000171600204FF05042504B12682DE9F047D9
:10575000DFF844914E4CDFF8448153F822604D4D00
:1057600040E0DFF83CA10020FFF79AF9FFF78CF941
:105770004FF050431B68DAE8CF2F0121002A01D1F6
:10578000CAE8421FBFF35F8F002A50D15B0001229D
:10579000434462705A704FF050431A68D5E8CF3FC7
:1057A0000121002B01D1C5E8431FBFF35F8F73B107
:1057B00018F81230002B4BD1D5E8CF1F0123002958
:1057C000FAD1C5E8413F0029F6D1BFF35F8F01232D
:1057D000237008F812304FF050431A6849F82270CD
:1057E000002F40D0B36B02334ED14FF050410A68C6
:1057F00059F822706FB1002349F8223023780A68E3
:10580000013BDBB223701BB908F81230C5E88F3FAB
:105810000A686378013BDBB26370002BA1D108EB0F
:105820004202DFF87CA05370CAE88F3F9BE708EB89
:10583000430252785B0012BBDAE8CF1F0122002935
:10584000FAD1CAE8412F0029F6D1BFF35F8F9EE756
:1058500023780133DBB223704FF050431A6849F8C4
:105860002270002FBED11A682378013BDBB223706F
:10587000002BB7D108F81270C5E88F7F6FE7637807
:105880000133DBB2637086E7BDE8F087C81E0020F5
:105890008421022016160020882102208021022067
:1058A0001716002070B582B0FFF7EEF84FF05042A7
:1058B000384B1268D3E8CF1F0124002901D1C3E877
:1058C000414FBFF35F8F344D002941D15100012377
:1058D000324C294463704B70314E3368002B48D0F2
:1058E0004FF050432F4A1968D2E8CF3F5FF0010CC8
:1058F000002B01D1C2E843CFBFF35F8F83B115F80E
:105900001130002B40D1D2E8CFCF0123BCF1000FE2
:10591000F9D1C2E84C3FBCF1000FF4D1BFF35F8F67
:105920000123237005F811304FF0504133680133E3
:10593000336023780968013BDBB223701BB905F89B
:105940001130C2E88F3F02B0BDE87040FFF7A8B841
:10595000510005EB4202527882B9D3E8CF4F0122C1
:10596000002CFAD1C3E8442F002CF6D1BFF35F8F8F
:10597000ADE70190FFF7E6FE0198B1E7074C6378C9
:105980000133DBB26370A7E723780133DBB2237006
:10599000CAE700BF171600208021022084210220C0
:1059A000B0210220161600202DE9F8435E4C5F4D11
:1059B0005F4EDFF898815F4F2368002B3AD0FFF7E6
:1059C00063F82B6893B14FF050431B6856F82320BF
:1059D000002A41D04FF0504156F82320013246F8BA
:1059E00023200B6856F82330012B2ED023681BB3DD
:1059F000514BDB68D3F80C90D9F83830013340F0C4
:105A00008B8009F10800FFF7BFF94C4A1368013B8E
:105A100013602368013B23602B680BB1FFF74CFE3A
:105A2000D9F8340002F018F8484602F015F8236857
:105A3000002BC4D1BDE8F8832B68002BBCD0FFF746
:105A40003BFE2368002BBAD1F4E7D8F80030002BD6
:105A5000CCD1FFF777FEC9E7D7E8CF2F0121002A85
:105A600001D1C7E8421FBFF35F8F002A35D1344A06
:105A7000590001233348114443704B704FF0504C90
:105A8000314BDCF80010D3E8CFEF5FF00109BEF135
:105A9000000F01D1C3E84E9FBFF35F8FBEF1000F2F
:105AA00012D012F811E0BEF1000F28D1D3E8CFEFE9
:105AB0005FF0010CBEF1000FF8D1C3E84ECFBEF18C
:105AC000000FF3D1BFF35F8F01234FF0504C0370F1
:105AD00002F81130DCF800307CE7194A590002EB7B
